:100000000C943A000C9457000C9457000C94570031
:100010000C9457000C9457000C9457000C94570004
:100020000C9457000C9457000C9457000C945700F4
:100030000C9457000C9457000C9457000C945700E4
:100040000C9457000C9457000C9457000C945700D4
:100050000C9457000C9457000C9457000C945700C4
:100060000C9457000C94570048656C6C6F20576FC8
:10007000726C640011241FBECFEFD8E0DEBFCDBF8D
:1000800011E0A0E0B1E0E6EAF4E002C005900D92D4
:10009000AC30B107D9F711E0ACE0B1E001C01D927E
:1000A000AF30B107E1F70E9429020C9451020C9481
:1000B00000001092B9008DEF8093B800089594EA83
:1000C0009093BC00ECEBF0E090819923ECF79091D9
:1000D000B900987F983011F09031A1F48093BB0063
:1000E00084E88093BC00ECEBF0E080818823ECF79F
:1000F0009091B900987F983139F081E0903429F4DB
:1001000080E0089581E0089580E00895CF93DF9323
:10011000ECEBF0E024EAA9EBB0E0CBEBD0E034E884
:1001200044E9208390819923ECF79C91987F983043
:1001300011F09031B1F78883308390819923ECF7E7
:100140009C91987F903211F0983529F440839081EA
:1001500094FDFDCFE6CFDF91CF9108950E945F001F
:10016000089584E98093BC00ECEBF0E0808184FD8D
:10017000FDCF08958093BB0084E88093BC00ECEB36
:10018000F0E080818823ECF79091B900987F81E0BE
:10019000983209F480E0089584EC8093BC00ECEB85
:1001A000F0E080818823ECF78091BB00089584E81B
:1001B0008093BC00ECEBF0E080818823ECF7809129
:1001C000BB000895EF92FF920F931F93CF93DF939D
:1001D000F62EE72E142F880F0E945F00882391F4DB
:1001E000112391F00F2D8E2DEF2CE7017E01F82EBB
:1001F000E70189910E94BA007E01E01AE116C8F376
:1002000010E003C011E001C010E00E94B100812F96
:10021000DF91CF911F910F91FF90EF9008950F9371
:100220001F93DF93CF9300D000D00F92CDB7DEB7EE
:10023000182F683071F4882311F088E001C080E045
:100240008093000187E260E071E041E00E94E200FB
:1002500023C000910001062B0983807F8460802BDE
:100260008A838B7F8B83812F8295807F802B846014
:100270008C838B7F8D8387E2BE016F5F7F4F45E06C
:100280000E94E20000FD08C0133030F4E3EFF1E01B
:100290003197F1F700C000000F900F900F900F9072
:1002A0000F90CF91DF911F910F9108950F931F939E
:1002B000082F162F982F9068E62FF0E0EF5FFE4F83
:1002C0008081892B60E00E940F0100930D01109343
:1002D0000E011F910F91089581E060E00E940F01CF
:1002E00010920E0110920D01089582E060E00E94CC
:1002F0000F0110920E0110920D0108951F93182FF7
:1003000090910D0180910C01981718F41A3059F44E
:1003100014C060910E016F5F60930E0180E00E9437
:1003200056011A3091F080910D018F5F80930D017D
:10033000812F61E00E940F0108C060910E016F5F84
:1003400060930E0180E00E9456011F910895CF93A3
:10035000DF93EC018881882331F021960E947E0191
:1003600089918823D9F7DF91CF910895CF93DF93B7
:10037000EC01FC018491882341F021960E947E01CA
:10038000FE01219684918823C9F7DF91CF910895CA
:1003900060E00E940F01089561E00E940F0108953E
:1003A000DF92EF92FF920F931F93DF93CF9300D0D2
:1003B00000D000D0CDB7DEB7D82EDE011196E5E033
:1003C000F1E086E001900D928150E1F780E18093A9
:1003D0000C01E1E0F1E08081805F80930301818185
:1003E000805F83830E9459008BE49DE10197F1F7C0
:1003F00000C000008E010F5F1F4F0F2EF7E0EF2EA1
:10040000FF24F02DEC0EFD1EF80181918F0160E0BC
:100410000E940F0181EE94E00197F1F700C0000007
:100420000E151F0589F78D2D60E00E940F0126969D
:100430000FB6F894DEBF0FBECDBFCF91DF911F91F5
:100440000F91FF90EF90DF90089568E00E940F01F8
:10045000089582E00E94D00180E00E9425028FE989
:1004600096E8A1E081509040A040E1F700C0000074
:1004700081E00E9425028FE996E8A1E0815090403A
:10048000A040E1F700C000000E946C0180E060E045
:100490000E94560188E690E00E94B60180E090E05C
:0604A0000895F894FFCF5F
:0C04A6000880C000003332280C06010062
:00000001FF
