:100000000C9434000C9451000C9451000C94510049
:100010000C9451000C9451000C9451000C9451001C
:100020000C9451000C9451000C9451000C9451000C
:100030000C9451000C9451000C9451000C945100FC
:100040000C9451000C9451000C9453000C948200B9
:100050000C9451000C9451000C9451000C945100DC
:100060000C9451000C94510011241FBECFEFD8E026
:10007000DEBFCDBF11E0A0E0B1E0E2E4F3E002C0FA
:1000800005900D92A430B107D9F711E0A4E0B1E0DA
:1000900001C01D92A934B107E1F70E9419010C9427
:1000A0009F010C9400001F920F920FB60F92112423
:1000B0002F933F938F939F93EF93FF933091C000C3
:1000C0002091C600809126018F5F8F71909127014A
:1000D000891751F0932F987180932601E8E2F1E09F
:1000E000E80FF11D208301C092E090934801FF9139
:1000F000EF919F918F913F912F910F900FBE0F9095
:100100001F9018951F920F920FB60F9211248F9384
:100110009F93EF93FF9390910401809105019817AD
:1001200071F0809105018F5F8F7180930501E6E08A
:10013000F1E0E80FF11D80818093C60005C0E1EC7D
:10014000F0E080818F7D8083FF91EF919F918F916F
:100150000F900FBE0F901F901895109204011092EF
:1001600005011092260110922701992324F422E020
:100170002093C0009F779093C5008093C40088E9C6
:100180008093C10086E08093C2000895909126017B
:1001900080912701981791F0809127018F5F8F71CF
:1001A00080932701E8E2F1E0E80FF11D8081909152
:1001B0004801392F20E0280F311D02C020E031E036
:1001C000822F932F0895209104012F5F2F7190911A
:1001D00005012917E1F3E6E0F1E0E20FF11D80836C
:1001E00020930401E1ECF0E0808180628083089537
:1001F000CF93DF93EC018881882331F021960E9410
:10020000E30089918823D9F7DF91CF910895CF93A7
:10021000DF93EC01FC018491882341F021960E9438
:10022000E300FE01219684918823C9F7DF91CF91E5
:100230000895AF92BF92CF92DF92EF92FF920F9309
:100240001F93DF93CF93CDB7DEB72A970FB6F894FD
:10025000DEBF0FBECDBF8BE290E00E94AD00789470
:1002600000E010E07E010894E11CF11C0F2EF0E08C
:10027000CF2EF1E0DF2EF02DAA24BB24C801B70158
:100280004AE050E00E945A01C7010E94F800C601EE
:100290000E94F8008FE996E8A1E081509040A040CC
:1002A000E1F700C000000F5F1F4F0A30110534F363
:1002B0008501E4CFFB019F01E8944230C4F0453250
:1002C000B4F44A3029F497FB1EF4909581959F4F22
:1002D000642F77270E948B01805D8A330CF0895D43
:1002E0008193CB010097A1F716F45DE25193108240
:1002F000C9010C947B01DC01FC01672F719177230C
:10030000E1F7329704C07C916D9370836291AE17D0
:10031000BF07C8F30895AA1BBB1B51E107C0AA1F62
:10032000BB1FA617B70710F0A61BB70B881F991F96
:100330005A95A9F780959095BC01CD010895F89440
:02034000FFCFED
:040342000D0A0000A0
:00000001FF
